{
  "contractName": "DataShare",
  "abi": [
    {
      "anonymous": false,
      "inputs": [
        {
          "indexed": false,
          "internalType": "string[]",
          "name": "info",
          "type": "string[]"
        }
      ],
      "name": "purchase",
      "type": "event"
    },
    {
      "inputs": [
        {
          "internalType": "uint256",
          "name": "_Pid",
          "type": "uint256"
        },
        {
          "internalType": "string[]",
          "name": "data",
          "type": "string[]"
        },
        {
          "internalType": "uint256",
          "name": "nrows",
          "type": "uint256"
        },
        {
          "internalType": "uint256",
          "name": "ncolumns",
          "type": "uint256"
        },
        {
          "internalType": "uint256",
          "name": "rowcost",
          "type": "uint256"
        },
        {
          "internalType": "uint256",
          "name": "columncost",
          "type": "uint256"
        }
      ],
      "name": "addFile",
      "outputs": [],
      "stateMutability": "nonpayable",
      "type": "function"
    },
    {
      "inputs": [
        {
          "internalType": "uint256",
          "name": "_Pid",
          "type": "uint256"
        },
        {
          "internalType": "uint256",
          "name": "fromRow",
          "type": "uint256"
        },
        {
          "internalType": "uint256",
          "name": "toRow",
          "type": "uint256"
        },
        {
          "internalType": "uint256[]",
          "name": "columnNo",
          "type": "uint256[]"
        }
      ],
      "name": "buyFile",
      "outputs": [],
      "stateMutability": "payable",
      "type": "function",
      "payable": true
    }
  ],
  "bytecode": "0x608060405234801561001057600080fd5b50610ed5806100206000396000f3fe6080604052600436106100295760003560e01c80630d0e3da61461002e578063e831b26b1461004a575b600080fd5b61004860048036038101906100439190610961565b610073565b005b34801561005657600080fd5b50610071600480360381019061006c91906108c0565b6104d4565b005b60008085815260200190815260200160002060009054906101000a900473ffffffffffffffffffffffffffffffffffffffff1673ffffffffffffffffffffffffffffffffffffffff163373ffffffffffffffffffffffffffffffffffffffff161415610114576040517f08c379a000000000000000000000000000000000000000000000000000000000815260040161010b90610b00565b60405180910390fd5b600083836101229190610cef565b90506000670de0b6b3a7640000905060008087815260200190815260200160002060009054906101000a900473ffffffffffffffffffffffffffffffffffffffff1673ffffffffffffffffffffffffffffffffffffffff166108fc829081150290604051600060405180830381858888f193505050501580156101a9573d6000803e3d6000fd5b5060018060003373ffffffffffffffffffffffffffffffffffffffff1673ffffffffffffffffffffffffffffffffffffffff168152602001908152602001600020600088815260200190815260200160002060006101000a81548160ff02191690831515021790555060008351836102219190610c95565b905060008167ffffffffffffffff811115610265577f4e487b7100000000000000000000000000000000000000000000000000000000600052604160045260246000fd5b60405190808252806020026020018201604052801561029857816020015b60608152602001906001900390816102835790505b50905060005b848110156104925760005b865181101561047e576000600260008c8152602001908152602001600020600201888381518110610303577f4e487b7100000000000000000000000000000000000000000000000000000000600052603260045260246000fd5b6020026020010151600260008e815260200190815260200160002060010154858d61032e9190610c3f565b6103389190610c95565b6103429190610c3f565b81548110610379577f4e487b7100000000000000000000000000000000000000000000000000000000600052603260045260246000fd5b90600052602060002001905080805461039190610d6f565b80601f01602080910402602001604051908101604052809291908181526020018280546103bd90610d6f565b801561040a5780601f106103df5761010080835404028352916020019161040a565b820191906000526020600020905b8154815290600101906020018083116103ed57829003601f168201915b505050505084838a518661041e9190610c95565b6104289190610c3f565b8151811061045f577f4e487b7100000000000000000000000000000000000000000000000000000000600052603260045260246000fd5b602002602001018190525050808061047690610da1565b9150506102a9565b50808061048a90610da1565b91505061029e565b507feaecd4548cfb95d436545bfbd40de75569853f303f33467a85489062254928d0816040516104c29190610ade565b60405180910390a15050505050505050565b60405180606001604052808581526020018481526020018681525060026000888152602001908152602001600020600082015181600001556020820151816001015560408201518160020190805190602001906105329291906105bf565b509050508060046000888152602001908152602001600020819055508160036000888152602001908152602001600020819055503360008088815260200190815260200160002060006101000a81548173ffffffffffffffffffffffffffffffffffffffff021916908373ffffffffffffffffffffffffffffffffffffffff160217905550505050505050565b82805482825590600052602060002090810192821561060e579160200282015b8281111561060d5782518290805190602001906105fd92919061061f565b50916020019190600101906105df565b5b50905061061b91906106a5565b5090565b82805461062b90610d6f565b90600052602060002090601f01602090048101928261064d5760008555610694565b82601f1061066657805160ff1916838001178555610694565b82800160010185558215610694579182015b82811115610693578251825591602001919060010190610678565b5b5090506106a191906106c9565b5090565b5b808211156106c557600081816106bc91906106e6565b506001016106a6565b5090565b5b808211156106e25760008160009055506001016106ca565b5090565b5080546106f290610d6f565b6000825580601f106107045750610723565b601f01602090049060005260206000209081019061072291906106c9565b5b50565b600061073961073484610b51565b610b20565b9050808382526020820190508260005b85811015610779578135850161075f8882610881565b845260208401935060208301925050600181019050610749565b5050509392505050565b600061079661079184610b7d565b610b20565b905080838252602082019050828560208602820111156107b557600080fd5b60005b858110156107e557816107cb88826108ab565b8452602084019350602083019250506001810190506107b8565b5050509392505050565b60006108026107fd84610ba9565b610b20565b90508281526020810184848401111561081a57600080fd5b610825848285610d2d565b509392505050565b600082601f83011261083e57600080fd5b813561084e848260208601610726565b91505092915050565b600082601f83011261086857600080fd5b8135610878848260208601610783565b91505092915050565b600082601f83011261089257600080fd5b81356108a28482602086016107ef565b91505092915050565b6000813590506108ba81610e88565b92915050565b60008060008060008060c087890312156108d957600080fd5b60006108e789828a016108ab565b965050602087013567ffffffffffffffff81111561090457600080fd5b61091089828a0161082d565b955050604061092189828a016108ab565b945050606061093289828a016108ab565b935050608061094389828a016108ab565b92505060a061095489828a016108ab565b9150509295509295509295565b6000806000806080858703121561097757600080fd5b6000610985878288016108ab565b9450506020610996878288016108ab565b93505060406109a7878288016108ab565b925050606085013567ffffffffffffffff8111156109c457600080fd5b6109d087828801610857565b91505092959194509250565b60006109e88383610a65565b905092915050565b60006109fb82610be9565b610a058185610c0c565b935083602082028501610a1785610bd9565b8060005b85811015610a535784840389528151610a3485826109dc565b9450610a3f83610bff565b925060208a01995050600181019050610a1b565b50829750879550505050505092915050565b6000610a7082610bf4565b610a7a8185610c1d565b9350610a8a818560208601610d3c565b610a9381610e77565b840191505092915050565b6000610aab601583610c2e565b91507f4f776e65722063616e6e6f7420627579206461746100000000000000000000006000830152602082019050919050565b60006020820190508181036000830152610af881846109f0565b905092915050565b60006020820190508181036000830152610b1981610a9e565b9050919050565b6000604051905081810181811067ffffffffffffffff82111715610b4757610b46610e48565b5b8060405250919050565b600067ffffffffffffffff821115610b6c57610b6b610e48565b5b602082029050602081019050919050565b600067ffffffffffffffff821115610b9857610b97610e48565b5b602082029050602081019050919050565b600067ffffffffffffffff821115610bc457610bc3610e48565b5b601f19601f8301169050602081019050919050565b6000819050602082019050919050565b600081519050919050565b600081519050919050565b6000602082019050919050565b600082825260208201905092915050565b600082825260208201905092915050565b600082825260208201905092915050565b6000610c4a82610d23565b9150610c5583610d23565b9250827fffffffffffffffffffffffffffffffffffffffffffffffffffffffffffffffff03821115610c8a57610c89610dea565b5b828201905092915050565b6000610ca082610d23565b9150610cab83610d23565b9250817fffffffffffffffffffffffffffffffffffffffffffffffffffffffffffffffff0483118215151615610ce457610ce3610dea565b5b828202905092915050565b6000610cfa82610d23565b9150610d0583610d23565b925082821015610d1857610d17610dea565b5b828203905092915050565b6000819050919050565b82818337600083830152505050565b60005b83811015610d5a578082015181840152602081019050610d3f565b83811115610d69576000848401525b50505050565b60006002820490506001821680610d8757607f821691505b60208210811415610d9b57610d9a610e19565b5b50919050565b6000610dac82610d23565b91507fffffffffffffffffffffffffffffffffffffffffffffffffffffffffffffffff821415610ddf57610dde610dea565b5b600182019050919050565b7f4e487b7100000000000000000000000000000000000000000000000000000000600052601160045260246000fd5b7f4e487b7100000000000000000000000000000000000000000000000000000000600052602260045260246000fd5b7f4e487b7100000000000000000000000000000000000000000000000000000000600052604160045260246000fd5b6000601f19601f8301169050919050565b610e9181610d23565b8114610e9c57600080fd5b5056fea2646970667358221220618e47cb7d535f0813632efab04e4cf1a724bcb5f3114262869f40e0f0844e6264736f6c63430008000033",
  "immutableReferences": {},
  "source": "//SPDX-License-Identifier: UNLICENSED\r\n//transaction history\r\n//sellable columns\r\n//Owner Files\r\npragma solidity >=0.7.0 <0.9.0;\r\n\r\ncontract DataShare {\r\n    struct File {\r\n        uint256 n;\r\n        uint256 m;\r\n        string[] data;\r\n    }\r\n    // For finding post owner, postid=>owner\r\n    mapping(uint256 => address payable) PostOwner;\r\n    //For finding posts owned by a person, person=>postid\r\n    // mapping(address   => File[]) FilesOwned;\r\n    // For finding files owned after buying, buyer=> file\r\n    // mapping( address => File ) FilesOwned;\r\n    mapping(address => mapping(uint256 => bool)) FilesOwned;\r\n\r\n    // For finding files in a post, postid=> file\r\n    mapping(uint256 => File) file;\r\n    //For finding cost per row block\r\n    mapping(uint256 => uint256) FileCostPerRow;\r\n    //For finding cost per column block\r\n    mapping(uint256 => uint256) FileCostPerColumn;\r\n\r\n    //function to add a post with post id, data and cost\r\n    function addFile(\r\n        uint256 _Pid,\r\n        string[] memory data,\r\n        uint256 nrows,\r\n        uint256 ncolumns,\r\n        uint256 rowcost,\r\n        uint256 columncost\r\n    ) public {\r\n        file[_Pid] = File({n: nrows, m: ncolumns, data: data});\r\n        //add cost\r\n        FileCostPerColumn[_Pid] = columncost;\r\n        FileCostPerRow[_Pid] = rowcost;\r\n        //add owner of post\r\n        PostOwner[_Pid] = payable(msg.sender);\r\n        //add to list of posts owned by seller\r\n        // PostsOwned[msg.sender].push(_Pid);\r\n\r\n        // FilesOwned[msg.sender][_Pid]=true;\r\n    }\r\n\r\n    event purchase(string[] info);\r\n\r\n    //function to buy a file\r\n    function buyFile(\r\n        uint256 _Pid,\r\n        uint256 fromRow,\r\n        uint256 toRow,\r\n        uint256[] memory columnNo\r\n    ) public payable {\r\n        require(msg.sender != PostOwner[_Pid], \"Owner cannot buy data\");\r\n\r\n        uint256 rows = toRow - fromRow;\r\n        // uint columns=columnNo.length;\r\n        uint256 TotalCost = 1000000000000000000;\r\n        // require(\r\n        //     msg.value>=TotalCost,\r\n        //     \"Insufficient Funds\"\r\n        // );\r\n        PostOwner[_Pid].transfer(TotalCost);\r\n        FilesOwned[msg.sender][_Pid] = true;\r\n\r\n        // string[] memory data = new string[](rows*columns);\r\n\r\n        uint256 totalLength = rows * columnNo.length;\r\n        string[] memory data = new string[](totalLength);\r\n\r\n        for (uint256 i = 0; i < rows; i++) {\r\n            for (uint256 j = 0; j < columnNo.length; j++) {\r\n                string storage temp = file[_Pid].data[\r\n                    (fromRow + i) * file[_Pid].m + columnNo[j]\r\n                ];\r\n                data[i * columnNo.length + j] = temp;\r\n            }\r\n        }\r\n\r\n        emit purchase(data);\r\n        return;\r\n        // return(data);\r\n    }\r\n}\r\n",
  "sourcePath": "C:\\Users\\maitr\\Documents\\GitHub\\IDS\\data-sharing\\src\\contracts\\DataShare.sol",
  "compiler": {
    "name": "solc",
    "version": "0.8.0+commit.c7dfd78e.Emscripten.clang"
  },
  "schemaVersion": "3.4.4",
  "updatedAt": "2022-04-01T09:38:10.840Z",
  "networkType": "ethereum",
  "devdoc": {
    "kind": "dev",
    "methods": {},
    "version": 1
  },
  "userdoc": {
    "kind": "user",
    "methods": {},
    "version": 1
  }
}